{
  "address": "0xA2DE7F5fCdb5F32CE31F86db57682E9dEF7c3823",
  "abi": [
    {
      "inputs": [
        {
          "internalType": "address",
          "name": "token",
          "type": "address"
        }
      ],
      "stateMutability": "nonpayable",
      "type": "constructor"
    },
    {
      "anonymous": false,
      "inputs": [
        {
          "indexed": true,
          "internalType": "address",
          "name": "owner",
          "type": "address"
        },
        {
          "indexed": true,
          "internalType": "address",
          "name": "spender",
          "type": "address"
        },
        {
          "indexed": false,
          "internalType": "uint256",
          "name": "value",
          "type": "uint256"
        }
      ],
      "name": "Approval",
      "type": "event"
    },
    {
      "anonymous": false,
      "inputs": [
        {
          "indexed": true,
          "internalType": "address",
          "name": "from",
          "type": "address"
        },
        {
          "indexed": true,
          "internalType": "address",
          "name": "to",
          "type": "address"
        },
        {
          "indexed": false,
          "internalType": "uint256",
          "name": "value",
          "type": "uint256"
        }
      ],
      "name": "Transfer",
      "type": "event"
    },
    {
      "inputs": [
        {
          "internalType": "uint256",
          "name": "tknAmount",
          "type": "uint256"
        }
      ],
      "name": "addLiquidity",
      "outputs": [
        {
          "internalType": "uint256",
          "name": "",
          "type": "uint256"
        }
      ],
      "stateMutability": "payable",
      "type": "function"
    },
    {
      "inputs": [
        {
          "internalType": "address",
          "name": "owner",
          "type": "address"
        },
        {
          "internalType": "address",
          "name": "spender",
          "type": "address"
        }
      ],
      "name": "allowance",
      "outputs": [
        {
          "internalType": "uint256",
          "name": "",
          "type": "uint256"
        }
      ],
      "stateMutability": "view",
      "type": "function"
    },
    {
      "inputs": [
        {
          "internalType": "address",
          "name": "spender",
          "type": "address"
        },
        {
          "internalType": "uint256",
          "name": "amount",
          "type": "uint256"
        }
      ],
      "name": "approve",
      "outputs": [
        {
          "internalType": "bool",
          "name": "",
          "type": "bool"
        }
      ],
      "stateMutability": "nonpayable",
      "type": "function"
    },
    {
      "inputs": [
        {
          "internalType": "address",
          "name": "account",
          "type": "address"
        }
      ],
      "name": "balanceOf",
      "outputs": [
        {
          "internalType": "uint256",
          "name": "",
          "type": "uint256"
        }
      ],
      "stateMutability": "view",
      "type": "function"
    },
    {
      "inputs": [],
      "name": "decimals",
      "outputs": [
        {
          "internalType": "uint8",
          "name": "",
          "type": "uint8"
        }
      ],
      "stateMutability": "view",
      "type": "function"
    },
    {
      "inputs": [
        {
          "internalType": "address",
          "name": "spender",
          "type": "address"
        },
        {
          "internalType": "uint256",
          "name": "subtractedValue",
          "type": "uint256"
        }
      ],
      "name": "decreaseAllowance",
      "outputs": [
        {
          "internalType": "bool",
          "name": "",
          "type": "bool"
        }
      ],
      "stateMutability": "nonpayable",
      "type": "function"
    },
    {
      "inputs": [],
      "name": "factoryAddress",
      "outputs": [
        {
          "internalType": "address",
          "name": "",
          "type": "address"
        }
      ],
      "stateMutability": "view",
      "type": "function"
    },
    {
      "inputs": [
        {
          "internalType": "uint256",
          "name": "inputAmount",
          "type": "uint256"
        }
      ],
      "name": "getEthAmount",
      "outputs": [
        {
          "internalType": "uint256",
          "name": "",
          "type": "uint256"
        }
      ],
      "stateMutability": "view",
      "type": "function"
    },
    {
      "inputs": [
        {
          "internalType": "uint256",
          "name": "inputAmount",
          "type": "uint256"
        }
      ],
      "name": "getTknAmount",
      "outputs": [
        {
          "internalType": "uint256",
          "name": "",
          "type": "uint256"
        }
      ],
      "stateMutability": "view",
      "type": "function"
    },
    {
      "inputs": [],
      "name": "getTknReserve",
      "outputs": [
        {
          "internalType": "uint256",
          "name": "",
          "type": "uint256"
        }
      ],
      "stateMutability": "view",
      "type": "function"
    },
    {
      "inputs": [
        {
          "internalType": "address",
          "name": "spender",
          "type": "address"
        },
        {
          "internalType": "uint256",
          "name": "addedValue",
          "type": "uint256"
        }
      ],
      "name": "increaseAllowance",
      "outputs": [
        {
          "internalType": "bool",
          "name": "",
          "type": "bool"
        }
      ],
      "stateMutability": "nonpayable",
      "type": "function"
    },
    {
      "inputs": [],
      "name": "name",
      "outputs": [
        {
          "internalType": "string",
          "name": "",
          "type": "string"
        }
      ],
      "stateMutability": "view",
      "type": "function"
    },
    {
      "inputs": [
        {
          "internalType": "uint256",
          "name": "lpAmount",
          "type": "uint256"
        }
      ],
      "name": "removeLiquidity",
      "outputs": [
        {
          "internalType": "uint256",
          "name": "",
          "type": "uint256"
        },
        {
          "internalType": "uint256",
          "name": "",
          "type": "uint256"
        }
      ],
      "stateMutability": "nonpayable",
      "type": "function"
    },
    {
      "inputs": [
        {
          "internalType": "uint256",
          "name": "outputAmountMin",
          "type": "uint256"
        }
      ],
      "name": "swapEthToTkn",
      "outputs": [],
      "stateMutability": "payable",
      "type": "function"
    },
    {
      "inputs": [
        {
          "internalType": "uint256",
          "name": "inputAmount",
          "type": "uint256"
        },
        {
          "internalType": "uint256",
          "name": "outputAmountMin",
          "type": "uint256"
        }
      ],
      "name": "swapTknToEth",
      "outputs": [],
      "stateMutability": "nonpayable",
      "type": "function"
    },
    {
      "inputs": [
        {
          "internalType": "uint256",
          "name": "inputAmount",
          "type": "uint256"
        },
        {
          "internalType": "uint256",
          "name": "outputAmountMin",
          "type": "uint256"
        },
        {
          "internalType": "address",
          "name": "token",
          "type": "address"
        }
      ],
      "name": "swapTknToTkn",
      "outputs": [],
      "stateMutability": "nonpayable",
      "type": "function"
    },
    {
      "inputs": [],
      "name": "symbol",
      "outputs": [
        {
          "internalType": "string",
          "name": "",
          "type": "string"
        }
      ],
      "stateMutability": "view",
      "type": "function"
    },
    {
      "inputs": [],
      "name": "tokenAddress",
      "outputs": [
        {
          "internalType": "address",
          "name": "",
          "type": "address"
        }
      ],
      "stateMutability": "view",
      "type": "function"
    },
    {
      "inputs": [],
      "name": "totalSupply",
      "outputs": [
        {
          "internalType": "uint256",
          "name": "",
          "type": "uint256"
        }
      ],
      "stateMutability": "view",
      "type": "function"
    },
    {
      "inputs": [
        {
          "internalType": "address",
          "name": "recipient",
          "type": "address"
        },
        {
          "internalType": "uint256",
          "name": "amount",
          "type": "uint256"
        }
      ],
      "name": "transfer",
      "outputs": [
        {
          "internalType": "bool",
          "name": "",
          "type": "bool"
        }
      ],
      "stateMutability": "nonpayable",
      "type": "function"
    },
    {
      "inputs": [
        {
          "internalType": "uint256",
          "name": "outputAmountMin",
          "type": "uint256"
        },
        {
          "internalType": "address",
          "name": "recipient",
          "type": "address"
        }
      ],
      "name": "transferEthToTkn",
      "outputs": [],
      "stateMutability": "payable",
      "type": "function"
    },
    {
      "inputs": [
        {
          "internalType": "address",
          "name": "sender",
          "type": "address"
        },
        {
          "internalType": "address",
          "name": "recipient",
          "type": "address"
        },
        {
          "internalType": "uint256",
          "name": "amount",
          "type": "uint256"
        }
      ],
      "name": "transferFrom",
      "outputs": [
        {
          "internalType": "bool",
          "name": "",
          "type": "bool"
        }
      ],
      "stateMutability": "nonpayable",
      "type": "function"
    }
  ],
  "transactionHash": "0x5ec166da66ae6c769aa62d7cd5ec85336f20318b024e6a324117489284e1983c",
  "args": [
    "0xA23bAFF0104cF88b750787084a279d3b0B2A79C5"
  ],
  "numDeployments": 1,
  "solcInputHash": "3c66d643ee55ab60702dc82c415f8252",
  "bytecode": "0x60806040523480156200001157600080fd5b5060405162001b6e38038062001b6e8339810160408190526200003491620001d1565b604080518082018252600c81526b486f6f6c69737761702d563160a01b602080830191825283518085019094526008845267484f4f4c492d563160c01b90840152815191929162000088916003916200012b565b5080516200009e9060049060208401906200012b565b5050506001600160a01b038116620000fc5760405162461bcd60e51b815260206004820152601560248201527f696e76616c696420746f6b656e20616464726573730000000000000000000000604482015260640160405180910390fd5b600580546001600160a01b039092166001600160a01b031992831617905560068054909116331790556200023e565b828054620001399062000201565b90600052602060002090601f0160209004810192826200015d5760008555620001a8565b82601f106200017857805160ff1916838001178555620001a8565b82800160010185558215620001a8579182015b82811115620001a85782518255916020019190600101906200018b565b50620001b6929150620001ba565b5090565b5b80821115620001b65760008155600101620001bb565b600060208284031215620001e3578081fd5b81516001600160a01b0381168114620001fa578182fd5b9392505050565b600181811c908216806200021657607f821691505b602082108114156200023857634e487b7160e01b600052602260045260246000fd5b50919050565b611920806200024e6000396000f3fe6080604052600436106101355760003560e01c80638d0c6ff1116100ab5780639d76ea581161006f5780639d76ea581461035c578063a457c2d71461037c578063a9059cbb1461039c578063b7a00bd8146103bc578063c49debee146103dc578063dd62ed3e146103fc57600080fd5b80638d0c6ff1146102a75780638fc7a25d146102ba57806395d89b41146102da578063966dae0e146102ef5780639c8f9f231461032757600080fd5b8063313ce567116100fd578063313ce567146101ed578063395093511461020957806351c6590a1461022957806354caef661461023c5780635517e3151461025157806370a082311461027157600080fd5b806306fdde031461013a578063095ea7b3146101655780631288a2421461019557806318160ddd146101b857806323b872dd146101cd575b600080fd5b34801561014657600080fd5b5061014f610442565b60405161015c91906117e1565b60405180910390f35b34801561017157600080fd5b5061018561018036600461167a565b6104d4565b604051901515815260200161015c565b3480156101a157600080fd5b506101aa6104ea565b60405190815260200161015c565b3480156101c457600080fd5b506002546101aa565b3480156101d957600080fd5b506101856101e836600461163a565b61056b565b3480156101f957600080fd5b506040516012815260200161015c565b34801561021557600080fd5b5061018561022436600461167a565b61061a565b6101aa6102373660046116c5565b610656565b61024f61024a3660046116f5565b6108a4565b005b34801561025d57600080fd5b506101aa61026c3660046116c5565b6109ab565b34801561027d57600080fd5b506101aa61028c3660046115ca565b6001600160a01b031660009081526020819052604090205490565b61024f6102b53660046116c5565b610a0e565b3480156102c657600080fd5b506101aa6102d53660046116c5565b610a1b565b3480156102e657600080fd5b5061014f610a7e565b3480156102fb57600080fd5b5060065461030f906001600160a01b031681565b6040516001600160a01b03909116815260200161015c565b34801561033357600080fd5b506103476103423660046116c5565b610a8d565b6040805192835260208301919091520161015c565b34801561036857600080fd5b5060055461030f906001600160a01b031681565b34801561038857600080fd5b5061018561039736600461167a565b610be3565b3480156103a857600080fd5b506101856103b736600461167a565b610c7c565b3480156103c857600080fd5b5061024f6103d736600461173a565b610c89565b3480156103e857600080fd5b5061024f6103f7366004611719565b610e83565b34801561040857600080fd5b506101aa610417366004611602565b6001600160a01b03918216600090815260016020908152604080832093909416825291909152205490565b60606003805461045190611884565b80601f016020809104026020016040519081016040528092919081815260200182805461047d90611884565b80156104ca5780601f1061049f576101008083540402835291602001916104ca565b820191906000526020600020905b8154815290600101906020018083116104ad57829003601f168201915b5050505050905090565b60006104e1338484610fa3565b50600192915050565b6005546040516370a0823160e01b81523060048201526000916001600160a01b0316906370a082319060240160206040518083038186803b15801561052e57600080fd5b505afa158015610542573d6000803e3d6000fd5b505050506040513d601f19601f8201168201806040525081019061056691906116dd565b905090565b60006105788484846110c8565b6001600160a01b0384166000908152600160209081526040808320338452909152902054828110156106025760405162461bcd60e51b815260206004820152602860248201527f45524332303a207472616e7366657220616d6f756e74206578636565647320616044820152676c6c6f77616e636560c01b60648201526084015b60405180910390fd5b61060f8533858403610fa3565b506001949350505050565b3360008181526001602090815260408083206001600160a01b038716845290915281205490916104e1918590610651908690611816565b610fa3565b60006106606104ea565b6106ff576005546040516323b872dd60e01b81526001600160a01b039091169081906323b872dd9061069a903390309088906004016117bd565b602060405180830381600087803b1580156106b457600080fd5b505af11580156106c8573d6000803e3d6000fd5b505050506040513d601f19601f820116820180604052508101906106ec91906116a5565b50476106f83382611297565b9392505050565b600061070b344761186d565b905060006107176104ea565b9050600082610726833461184e565b610730919061182e565b9050808510156107825760405162461bcd60e51b815260206004820152601960248201527f696e73756666696369656e7420746f6b656e20616d6f756e740000000000000060448201526064016105f9565b6005546040516323b872dd60e01b81526001600160a01b039091169081906323b872dd906107b8903390309087906004016117bd565b602060405180830381600087803b1580156107d257600080fd5b505af11580156107e6573d6000803e3d6000fd5b505050506040513d601f19601f8201168201806040525081019061080a91906116a5565b506108396040518060400160405280600c81526020016b30b23232b21012b2102a25a760a11b81525083611377565b6000843461084660025490565b610850919061184e565b61085a919061182e565b90506108663382611297565b61089a604051806040016040528060128152602001716d696e74656420256420484f4f4c492d563160701b81525082611377565b9695505050505050565b60006108ae6104ea565b905060006108bc344761186d565b905060006108cb3483856113bc565b90508481101561091d5760405162461bcd60e51b815260206004820152601a60248201527f696e73756666696369656e74206f757470757420616d6f756e7400000000000060448201526064016105f9565b60055460405163a9059cbb60e01b81526001600160a01b038681166004830152602482018490529091169063a9059cbb90604401602060405180830381600087803b15801561096b57600080fd5b505af115801561097f573d6000803e3d6000fd5b505050506040513d601f19601f820116820180604052508101906109a391906116a5565b505050505050565b60008082116109f75760405162461bcd60e51b81526020600482015260186024820152771a5b9c1d5d105b5bdd5b9d081a5cc81d1bdbc81cdb585b1b60421b60448201526064016105f9565b6000610a016104ea565b90506106f88347836113bc565b610a1881336108a4565b50565b6000808211610a675760405162461bcd60e51b81526020600482015260186024820152771a5b9c1d5d105b5bdd5b9d081a5cc81d1bdbc81cdb585b1b60421b60448201526064016105f9565b6000610a716104ea565b90506106f88382476113bc565b60606004805461045190611884565b60008060008311610ad15760405162461bcd60e51b815260206004820152600e60248201526d1a5b9d985b1a5908185b5bdd5b9d60921b60448201526064016105f9565b6000610adc60025490565b610ae6854761184e565b610af0919061182e565b90506000610afd60025490565b85610b066104ea565b610b10919061184e565b610b1a919061182e565b9050610b263386611463565b604051339083156108fc029084906000818181858888f19350505050158015610b53573d6000803e3d6000fd5b5060055460405163a9059cbb60e01b8152336004820152602481018390526001600160a01b039091169063a9059cbb90604401602060405180830381600087803b158015610ba057600080fd5b505af1158015610bb4573d6000803e3d6000fd5b505050506040513d601f19601f82011682018060405250810190610bd891906116a5565b509094909350915050565b3360009081526001602090815260408083206001600160a01b038616845290915281205482811015610c655760405162461bcd60e51b815260206004820152602560248201527f45524332303a2064656372656173656420616c6c6f77616e63652062656c6f77604482015264207a65726f60d81b60648201526084016105f9565b610c723385858403610fa3565b5060019392505050565b60006104e13384846110c8565b6006546040516303795fb160e11b81526001600160a01b03838116600483015260009216906306f2bf6290602401602060405180830381600087803b158015610cd157600080fd5b505af1158015610ce5573d6000803e3d6000fd5b505050506040513d601f19601f82011682018060405250810190610d0991906115e6565b90506001600160a01b0381163014801590610d2c57506001600160a01b03811615155b610d785760405162461bcd60e51b815260206004820152601860248201527f696e76616c69642065786368616e67652061646472657373000000000000000060448201526064016105f9565b6000610d826104ea565b9050476000610d928784846113bc565b6040516323b872dd60e01b81529091506001600160a01b038616906323b872dd90610dc590339030908c906004016117bd565b602060405180830381600087803b158015610ddf57600080fd5b505af1158015610df3573d6000803e3d6000fd5b505050506040513d601f19601f82011682018060405250810190610e1791906116a5565b50604051632a6577b360e11b8152600481018790523360248201526001600160a01b038516906354caef669083906044016000604051808303818588803b158015610e6157600080fd5b505af1158015610e75573d6000803e3d6000fd5b505050505050505050505050565b6000610e8d6104ea565b9050476000610e9d8584846113bc565b905083811015610eef5760405162461bcd60e51b815260206004820152601a60248201527f696e73756666696369656e74206f757470757420616d6f756e7400000000000060448201526064016105f9565b6005546040516323b872dd60e01b81526001600160a01b03909116906323b872dd90610f2390339030908a906004016117bd565b602060405180830381600087803b158015610f3d57600080fd5b505af1158015610f51573d6000803e3d6000fd5b505050506040513d601f19601f82011682018060405250810190610f7591906116a5565b50604051339082156108fc029083906000818181858888f193505050501580156109a3573d6000803e3d6000fd5b6001600160a01b0383166110055760405162461bcd60e51b8152602060048201526024808201527f45524332303a20617070726f76652066726f6d20746865207a65726f206164646044820152637265737360e01b60648201526084016105f9565b6001600160a01b0382166110665760405162461bcd60e51b815260206004820152602260248201527f45524332303a20617070726f766520746f20746865207a65726f206164647265604482015261737360f01b60648201526084016105f9565b6001600160a01b0383811660008181526001602090815260408083209487168084529482529182902085905590518481527f8c5be1e5ebec7d5bd14f71427d1e84f3dd0314c0f7b2291e5b200ac8c7c3b92591015b60405180910390a3505050565b6001600160a01b03831661112c5760405162461bcd60e51b815260206004820152602560248201527f45524332303a207472616e736665722066726f6d20746865207a65726f206164604482015264647265737360d81b60648201526084016105f9565b6001600160a01b03821661118e5760405162461bcd60e51b815260206004820152602360248201527f45524332303a207472616e7366657220746f20746865207a65726f206164647260448201526265737360e81b60648201526084016105f9565b6001600160a01b038316600090815260208190526040902054818110156112065760405162461bcd60e51b815260206004820152602660248201527f45524332303a207472616e7366657220616d6f756e7420657863656564732062604482015265616c616e636560d01b60648201526084016105f9565b6001600160a01b0380851660009081526020819052604080822085850390559185168152908120805484929061123d908490611816565b92505081905550826001600160a01b0316846001600160a01b03167fddf252ad1be2c89b69c2b068fc378daa952ba7f163c4a11628f55a4df523b3ef8460405161128991815260200190565b60405180910390a350505050565b6001600160a01b0382166112ed5760405162461bcd60e51b815260206004820152601f60248201527f45524332303a206d696e7420746f20746865207a65726f20616464726573730060448201526064016105f9565b80600260008282546112ff9190611816565b90915550506001600160a01b0382166000908152602081905260408120805483929061132c908490611816565b90915550506040518181526001600160a01b038316906000907fddf252ad1be2c89b69c2b068fc378daa952ba7f163c4a11628f55a4df523b3ef9060200160405180910390a35b5050565b611373828260405160240161138d9291906117f4565b60408051601f198184030181529190526020810180516001600160e01b03166309710a9d60e41b1790526115a9565b600080831180156113cd5750600082115b61140c5760405162461bcd60e51b815260206004820152601060248201526f696e76616c696420726573657276657360801b60448201526064016105f9565b600061141a6001606461186d565b611424908661184e565b90506000611432848361184e565b905060008261144287606461184e565b61144c9190611816565b9050611458818361182e565b979650505050505050565b6001600160a01b0382166114c35760405162461bcd60e51b815260206004820152602160248201527f45524332303a206275726e2066726f6d20746865207a65726f206164647265736044820152607360f81b60648201526084016105f9565b6001600160a01b038216600090815260208190526040902054818110156115375760405162461bcd60e51b815260206004820152602260248201527f45524332303a206275726e20616d6f756e7420657863656564732062616c616e604482015261636560f01b60648201526084016105f9565b6001600160a01b038316600090815260208190526040812083830390556002805484929061156690849061186d565b90915550506040518281526000906001600160a01b038516907fddf252ad1be2c89b69c2b068fc378daa952ba7f163c4a11628f55a4df523b3ef906020016110bb565b80516a636f6e736f6c652e6c6f67602083016000808483855afa5050505050565b6000602082840312156115db578081fd5b81356106f8816118d5565b6000602082840312156115f7578081fd5b81516106f8816118d5565b60008060408385031215611614578081fd5b823561161f816118d5565b9150602083013561162f816118d5565b809150509250929050565b60008060006060848603121561164e578081fd5b8335611659816118d5565b92506020840135611669816118d5565b929592945050506040919091013590565b6000806040838503121561168c578182fd5b8235611697816118d5565b946020939093013593505050565b6000602082840312156116b6578081fd5b815180151581146106f8578182fd5b6000602082840312156116d6578081fd5b5035919050565b6000602082840312156116ee578081fd5b5051919050565b60008060408385031215611707578182fd5b82359150602083013561162f816118d5565b6000806040838503121561172b578182fd5b50508035926020909101359150565b60008060006060848603121561174e578283fd5b83359250602084013591506040840135611767816118d5565b809150509250925092565b60008151808452815b818110156117975760208185018101518683018201520161177b565b818111156117a85782602083870101525b50601f01601f19169290920160200192915050565b6001600160a01b039384168152919092166020820152604081019190915260600190565b6020815260006106f86020830184611772565b6040815260006118076040830185611772565b90508260208301529392505050565b60008219821115611829576118296118bf565b500190565b60008261184957634e487b7160e01b81526012600452602481fd5b500490565b6000816000190483118215151615611868576118686118bf565b500290565b60008282101561187f5761187f6118bf565b500390565b600181811c9082168061189857607f821691505b602082108114156118b957634e487b7160e01b600052602260045260246000fd5b50919050565b634e487b7160e01b600052601160045260246000fd5b6001600160a01b0381168114610a1857600080fdfea26469706673582212204e311acd756bcff1f0fb4333a8d3edb3338fc762d09ccaf7bfec9e08d9f3686764736f6c63430008040033",
  "devdoc": {
    "kind": "dev",
    "methods": {
      "allowance(address,address)": {
        "details": "See {IERC20-allowance}."
      },
      "approve(address,uint256)": {
        "details": "See {IERC20-approve}. Requirements: - `spender` cannot be the zero address."
      },
      "balanceOf(address)": {
        "details": "See {IERC20-balanceOf}."
      },
      "decimals()": {
        "details": "Returns the number of decimals used to get its user representation. For example, if `decimals` equals `2`, a balance of `505` tokens should be displayed to a user as `5.05` (`505 / 10 ** 2`). Tokens usually opt for a value of 18, imitating the relationship between Ether and Wei. This is the value {ERC20} uses, unless this function is overridden; NOTE: This information is only used for _display_ purposes: it in no way affects any of the arithmetic of the contract, including {IERC20-balanceOf} and {IERC20-transfer}."
      },
      "decreaseAllowance(address,uint256)": {
        "details": "Atomically decreases the allowance granted to `spender` by the caller. This is an alternative to {approve} that can be used as a mitigation for problems described in {IERC20-approve}. Emits an {Approval} event indicating the updated allowance. Requirements: - `spender` cannot be the zero address. - `spender` must have allowance for the caller of at least `subtractedValue`."
      },
      "increaseAllowance(address,uint256)": {
        "details": "Atomically increases the allowance granted to `spender` by the caller. This is an alternative to {approve} that can be used as a mitigation for problems described in {IERC20-approve}. Emits an {Approval} event indicating the updated allowance. Requirements: - `spender` cannot be the zero address."
      },
      "name()": {
        "details": "Returns the name of the token."
      },
      "symbol()": {
        "details": "Returns the symbol of the token, usually a shorter version of the name."
      },
      "totalSupply()": {
        "details": "See {IERC20-totalSupply}."
      },
      "transfer(address,uint256)": {
        "details": "See {IERC20-transfer}. Requirements: - `recipient` cannot be the zero address. - the caller must have a balance of at least `amount`."
      },
      "transferFrom(address,address,uint256)": {
        "details": "See {IERC20-transferFrom}. Emits an {Approval} event indicating the updated allowance. This is not required by the EIP. See the note at the beginning of {ERC20}. Requirements: - `sender` and `recipient` cannot be the zero address. - `sender` must have a balance of at least `amount`. - the caller must have allowance for ``sender``'s tokens of at least `amount`."
      }
    },
    "version": 1
  },
  "userdoc": {
    "kind": "user",
    "methods": {},
    "version": 1
  },
  "storageLayout": {
    "storage": [
      {
        "astId": 15,
        "contract": "contracts/Exchange.sol:Exchange",
        "label": "_balances",
        "offset": 0,
        "slot": "0",
        "type": "t_mapping(t_address,t_uint256)"
      },
      {
        "astId": 21,
        "contract": "contracts/Exchange.sol:Exchange",
        "label": "_allowances",
        "offset": 0,
        "slot": "1",
        "type": "t_mapping(t_address,t_mapping(t_address,t_uint256))"
      },
      {
        "astId": 23,
        "contract": "contracts/Exchange.sol:Exchange",
        "label": "_totalSupply",
        "offset": 0,
        "slot": "2",
        "type": "t_uint256"
      },
      {
        "astId": 25,
        "contract": "contracts/Exchange.sol:Exchange",
        "label": "_name",
        "offset": 0,
        "slot": "3",
        "type": "t_string_storage"
      },
      {
        "astId": 27,
        "contract": "contracts/Exchange.sol:Exchange",
        "label": "_symbol",
        "offset": 0,
        "slot": "4",
        "type": "t_string_storage"
      },
      {
        "astId": 703,
        "contract": "contracts/Exchange.sol:Exchange",
        "label": "tokenAddress",
        "offset": 0,
        "slot": "5",
        "type": "t_address"
      },
      {
        "astId": 705,
        "contract": "contracts/Exchange.sol:Exchange",
        "label": "factoryAddress",
        "offset": 0,
        "slot": "6",
        "type": "t_address"
      }
    ],
    "types": {
      "t_address": {
        "encoding": "inplace",
        "label": "address",
        "numberOfBytes": "20"
      },
      "t_mapping(t_address,t_mapping(t_address,t_uint256))": {
        "encoding": "mapping",
        "key": "t_address",
        "label": "mapping(address => mapping(address => uint256))",
        "numberOfBytes": "32",
        "value": "t_mapping(t_address,t_uint256)"
      },
      "t_mapping(t_address,t_uint256)": {
        "encoding": "mapping",
        "key": "t_address",
        "label": "mapping(address => uint256)",
        "numberOfBytes": "32",
        "value": "t_uint256"
      },
      "t_string_storage": {
        "encoding": "bytes",
        "label": "string",
        "numberOfBytes": "32"
      },
      "t_uint256": {
        "encoding": "inplace",
        "label": "uint256",
        "numberOfBytes": "32"
      }
    }
  }
}